:100000000C942A000C9447000C9447000C94470071
:100010000C9447000C9447000C9447000C94470044
:100020000C9413010C94E9000C9447000C944700C5
:100030000C9447000C9447000C9447000C94470024
:100040000C9447000C9447000C9447000C94470014
:100050000C94470011241FBECFE5D4E0DEBFCDBF16
:1000600010E0A0E6B0E0E6E3F3E002C005900D92F8
:10007000A036B107D9F710E0A0E6B0E001C01D92AC
:10008000AD36B107E1F70E941F010C9499010C9461
:10009000000017BA8FEF8ABB089583B7836083BFD0
:1000A00081EB82BF89B7816089BF8EB587608EBDC5
:1000B0001DBC1CBC89B7846089BF0895F89417BA29
:1000C0008FEF8ABB83B7836083BF81EB82BF89B721
:1000D000816089BF8EB587608EBD1DBC1CBC89B791
:1000E000846089BF789408958830D1F1893090F484
:1000F000833061F1843028F4813011F1823020F5B1
:1001000021C0853039F1853018F1863029F18730EA
:10011000D9F524C08D3071F18E3048F48A3021F148
:100120008A3000F18B3011F18C3071F521C08F30A5
:1001300029F18F3008F18D3219F18F3529F522C060
:1001400089EF089580EC089584EA089580EB08957E
:1001500089E9089582E9089582E8089588EF08956D
:1001600080E8089580E9089588E8089583E808956F
:1001700086EC089581EA089586E808958EE808954A
:100180008FED089587EF08958FEF0895DF9A20E0AF
:1001900030E087FD02C0DD9801C0DD9ADE98DE9A6E
:1001A0002F5F3F4F2830310511F0880FF2CF80E0EC
:1001B00090E067FD02C0DD9801C0DD9ADE98DE9A0E
:1001C00001968830910511F0660FF3CFDF98DF9A22
:1001D00008951F920F920FB60F9211242F938F93B1
:1001E0009F9381E882BF809167009091680001969B
:1001F00090936800809367008C52914050F0109269
:100200006800109267008CB59DB590936400809350
:1002100063001DBC1CBC9F918F912F910F900FBE4E
:100220000F901F9018951F920F920FB60F921124E6
:100230001DBC1CBC0F900FBE0F901F9018951F93F4
:100240000E945E0011E02091630030916400C901BA
:1002500068EE73E00E948501F62F60936900C90182
:1002600064E670E00E948501CB016AE070E00E94C4
:100270008501E82F80936A00C9016AE070E00E945E
:100280008501CB016AE070E00E948501482F8093D0
:100290006B00C9016AE070E00E948501982F80938D
:1002A0006C00809162008F5F80936200853010F057
:1002B0001093620080916200823081F0833018F4E4
:1002C000813001F505C0833079F08430D9F412C053
:1002D0008F2F0E947400682F81E811C08E2F0E941A
:1002E0007400682F82E80BC0842F0E947400682F6E
:1002F00084E805C0892F0E947400682F88E80E9456
:10030000C600A1CF109362009ECFAA1BBB1B51E178
:1003100007C0AA1FBB1FA617B70710F0A61BB70B75
:10032000881F991F5A95A9F780959095BC01CD011A
:060330000895F894FFCFD0
:00000001FF
